:100000000C9461000C9473000C9473000C947300B6
:100010000C9473000C9473000C9473000C94730094
:100020000C9473000C9473000C9473000C94730084
:100030000C9473000C9473000C9473000C94730074
:100040000C94AE010C9473000C9473000C94730028
:100050000C9473000C9473000C9473000C94730054
:100060000C9473000C94730000000000240027001F
:100070002A0000000000250028002B0000000000DE
:1000800023002600290004040404040404040202DA
:100090000202020203030303030301020408102007
:1000A0004080010204081020010204081020000012
:1000B0000008000201000003040700000000000027
:1000C000000011241FBECFEFD8E0DEBFCDBF21E07E
:1000D000A0E0B1E001C01D92AB30B207E1F70E9491
:1000E000F8010C94E2020C940000833081F028F4B3
:1000F000813099F08230A1F008958730A9F08830DE
:10010000B9F08430D1F4809180008F7D03C080915C
:1001100080008F7780938000089584B58F7702C028
:1001200084B58F7D84BD08958091B0008F7703C022
:100130008091B0008F7D8093B0000895CF93DF93BE
:10014000282F30E0F901E255FF4F8491F901E6567E
:10015000FF4FD491F901EA57FF4FC491CC2391F09E
:1001600081110E947500EC2FF0E0EE0FFF1FE458A4
:10017000FF4FA591B491EC91ED2381E090E021F443
:1001800080E002C080E090E0DF91CF9108951F935E
:10019000CF93DF93282F30E0F901E255FF4F849190
:1001A000F901E656FF4FD491F901EA57FF4FC49188
:1001B000CC23C9F0162F81110E947500EC2FF0E0BE
:1001C000EE0FFF1FEE58FF4FA591B4918FB7F89433
:1001D000111105C09C91ED2FE095E92302C0EC912F
:1001E000ED2BEC938FBFDF91CF911F910895CF93AB
:1001F000DF9390E0FC01E656FF4F2491FC01EA57A3
:10020000FF4F8491882361F190E0880F991FFC01D2
:10021000E859FF4FC591D491FC01EE58FF4FA591CD
:10022000B491611109C09FB7F89488812095822309
:100230008883EC912E230BC0623061F49FB7F89451
:100240003881822F809583238883EC912E2B2C93E9
:100250009FBF06C08FB7F894E8812E2B28838FBFED
:10026000DF91CF9108951F93CF93DF93182FEB0168
:1002700061E00E94F700209711F460E004C0CF3FD6
:10028000D10539F461E0812FDF91CF911F910C945A
:10029000C700E12FF0E0E255FF4FE491E330F9F0C1
:1002A00048F4E130B9F0E230A1F584B5806284BD54
:1002B000C8BD34C0E730E9F0E83019F1E43049F561
:1002C00080918000806280938000D0938B00C093E7
:1002D0008A0024C084B5806884BDC7BD1FC08091DA
:1002E0008000806880938000D0938900C09388004C
:1002F00015C08091B00080688093B000C093B300B7
:100300000DC08091B00080628093B000C093B400B3
:1003100005C0C038D1050CF0B5CFAFCFDF91CF917C
:100320001F910895CF93C62F813031F460E084E0AF
:100330000E94C70061E009C0823011F461E001C091
:1003400060E084E00E94C70060E08BE00E94C7008C
:100350006C2F70E086E0CF910C9433011F920F92C6
:100360000FB60F9211242F933F938F939F93AF93C8
:10037000BF938091070190910801A0910901B0916C
:100380000A013091060123E0230F2D3720F4019656
:10039000A11DB11D05C026E8230F0296A11DB11DA8
:1003A000209306018093070190930801A09309010F
:1003B000B0930A018091020190910301A091040180
:1003C000B09105010196A11DB11D8093020190938A
:1003D0000301A0930401B0930501BF91AF919F91D8
:1003E0008F913F912F910F900FBE0F901F901895F6
:1003F000789484B5826084BD84B5816084BD85B500
:10040000826085BD85B5816085BD80916E0081600B
:1004100080936E00109281008091810082608093B1
:1004200081008091810081608093810080918000B3
:100430008160809380008091B10084608093B100DE
:100440008091B00081608093B00080917A008460D8
:1004500080937A0080917A00826080937A00809104
:100460007A00816080937A0080917A00806880931E
:100470007A001092C10061E087E00E94F70061E01D
:1004800088E00E94F70061E084E00E94F70061E0EC
:100490008BE00E94F70061E085E00E94F70061E0D8
:1004A00086E00E94F70061E080E10E94F70061E0D1
:1004B00081E10E94F70061E08EE00E94F70061E0B8
:1004C0008FE00E94F70060E089E00E94F70060E0A2
:1004D0008AE00E94F70080E0E82E80E0F82E89E0B4
:1004E0000E949E008C018AE00E949E00EC0161E067
:1004F0008EE00E94C70061E08FE00E94C7000115F6
:100500001105B1F42097F9F5109201011092000144
:1005100060E087E00E94C70060E088E00E94C700BA
:1005200061E070E085E00E94330161E080E041C05D
:100530000130110509F03FC0C130D10579F4D093E5
:100540000101C093000160E087E00E94C70061E004
:1005500088E00E94C7006AEF70E010C0CD2B59F50B
:10056000109301010093000160E087E00E94C70042
:1005700061E088E00E94C70061E070E085E00E94D1
:1005800033016AEF15C0C130D105A9F4D093010140
:10059000C093000160E087E00E94C70061E088E04E
:1005A0000E94C7006AEF70E085E00E94330161E0BD
:1005B00081E00E949201E114F10409F490CF0E94BD
:0805C00000008DCFF894FFCF7D
:107E0000112484B714BE81FFF0D085E080938100F7
:107E100082E08093C00088E18093C10086E0809377
:107E2000C20080E18093C4008EE0C9D0259A86E02C
:107E300020E33CEF91E0309385002093840096BBD3
:107E4000B09BFECF1D9AA8958150A9F7CC24DD24C4
:107E500088248394B5E0AB2EA1E19A2EF3E0BF2EE7
:107E6000A2D0813461F49FD0082FAFD0023811F036
:107E7000013811F484E001C083E08DD089C08234E0
:107E800011F484E103C0853419F485E0A6D080C0E4
:107E9000853579F488D0E82EFF2485D0082F10E0AE
:107EA000102F00270E291F29000F111F8ED06801E7
:107EB0006FC0863521F484E090D080E0DECF843638
:107EC00009F040C070D06FD0082F6DD080E0C81688
:107ED00080E7D80618F4F601B7BEE895C0E0D1E017
:107EE00062D089930C17E1F7F0E0CF16F0E7DF06D8
:107EF00018F0F601B7BEE89568D007B600FCFDCFD4
:107F0000A601A0E0B1E02C9130E011968C91119780
:107F100090E0982F8827822B932B1296FA010C0160
:107F200087BEE89511244E5F5F4FF1E0A038BF0790
:107F300051F7F601A7BEE89507B600FCFDCF97BE46
:107F4000E89526C08437B1F42ED02DD0F82E2BD052
:107F50003CD0F601EF2C8F010F5F1F4F84911BD097
:107F6000EA94F801C1F70894C11CD11CFA94CF0C13
:107F7000D11C0EC0853739F428D08EE10CD085E9AC
:107F80000AD08FE07ACF813511F488E018D01DD067
:107F900080E101D065CF982F8091C00085FFFCCF94
:107FA0009093C60008958091C00087FFFCCF809118
:107FB000C00084FD01C0A8958091C6000895E0E648
:107FC000F0E098E1908380830895EDDF803219F02E
:107FD00088E0F5DFFFCF84E1DECF1F93182FE3DFCA
:107FE0001150E9F7F2DF1F91089580E0E8DFEE27F6
:047FF000FF270994CA
:027FFE00040479
:0400000300007E007B
:00000001FF
